:100000000C942A000C94D2000C94F9000C941B035D
:100010000C9447000C9447000C9447000C94470044
:100020000C9447000C9447000C9460030C94390323
:100030000C9447000C9447000C9447000C94470024
:100040000C9447000C9447000C9447000C94470014
:100050000C94470011241FBECFE5D8E0DEBFCDBF12
:1000600010E0A0E6B0E0E6E5F7E002C005900D92F2
:10007000AA36B107D9F720E0AAE6B0E001C01D9288
:10008000A937B207E1F70E94BB020C94A9030C94B4
:10009000000094B39FEF94BB2AB39ABB2BB39BBBD6
:1000A000EDEC8E9FE12D1124E695E695E6952E2F39
:1000B000220F922F990F990F920F891B982F683654
:1000C00039F06D3641F0633749F080E020E008C038
:1000D00082E021E005C084E023E002C086E025E064
:1000E000F0E0E05AFF4F308135BB2330A1F028F417
:1000F000213049F0223059F01DC02530A1F078F0B0
:100100002630A9F017C02BB32E7F2BBB13C02BB307
:100110002D7F2BBB0FC02BB32B7F2BBB0BC02BB367
:10012000277F2BBB07C02BB32F7E2BBB03C02BB36A
:100130002F7D2BBB2AE12A95F1F700C02FEF2BBBB7
:10014000E92FF0E0E05AFF4F908195BB8330A1F09A
:1001500028F4813049F0823059F01DC08530A1F07B
:1001600078F08630A9F017C08BB38E7F8BBB13C09D
:100170008BB38D7F8BBB0FC08BB38B7F8BBB0BC0C7
:100180008BB3877F8BBB07C08BB38F7E8BBB03C0CA
:100190008BB38F7D8BBB8AE18A95F1F700C08FEF1F
:1001A0008BBB08951F920F920FB60F9211242F93BD
:1001B0003F934F935F936F937F938F939F93AF93EF
:1001C000BF93EF93FF93E0917300F0917400099552
:1001D000FF91EF91BF91AF919F918F917F916F911F
:1001E0005F914F913F912F910F900FBE0F901F90F5
:1001F00018951F920F920FB60F9211242F933F93D1
:100200004F935F936F937F938F939F93AF93BF931E
:10021000EF93FF93E0917100F09172000995FF91C7
:10022000EF91BF91AF919F918F917F916F915F916E
:100230004F913F912F910F900FBE0F901F901895E7
:1002400080EF81BB8FE082BB089598B3977F98BB06
:10025000882324F498B3906898BB03C098B39F7721
:1002600098BB86FF04C098B3906498BB03C098B352
:100270009F7B98BB85FF04C098B3906298BB03C076
:1002800098B39F7D98BB84FF04C098B3906198BBDE
:1002900003C098B39F7E98BB98B3926098BBEFE978
:1002A000FFE03197F1F700C0000098B39D7F98BB45
:1002B000EFE9FFE03197F1F700C0000083FF04C0D1
:1002C00098B3906898BB03C098B39F7798BB82FFA0
:1002D00004C098B3906498BB03C098B39F7B98BB4D
:1002E00081FF04C098B3906298BB03C098B39F7D10
:1002F00098BB80FF04C088B3806188BB03C088B30B
:100300008F7E88BB88B3826088BB8FE99FE00197AE
:10031000F1F700C0000088B38D7F88BBEFE9FFE0F4
:100320003197F1F700C00000089587B38A6F87BB4B
:1003300083E00E9425018FE79EE30197F1F700C05B
:10034000000083E00E9425018FE79EE30197F1F70B
:1003500000C0000083E00E9425018FE79EE3019723
:10036000F1F700C0000083E00E9425018FE79EE3C3
:100370000197F1F700C0000082E00E94250188E2A9
:100380000E94250188E00E94250181E00E9425014C
:1003900086E00E94250183E00E9425018CE00E94F6
:1003A00025019FEF29EF80E0915020408040E1F748
:1003B00000C00000089598B3986098BB882324F487
:1003C00098B3906898BB03C098B39F7798BB86FF9B
:1003D00004C098B3906498BB03C098B39F7B98BB4C
:1003E00085FF04C098B3906298BB03C098B39F7D0B
:1003F00098BB84FF04C098B3906198BB03C098B3C6
:100400009F7E98BB98B3926098BBEFE9FFE031976D
:10041000F1F700C0000098B39D7F98BBEFE9FFE0C3
:100420003197F1F700C0000083FF04C098B39068D3
:1004300098BB03C098B39F7798BB82FF04C098B362
:10044000906498BB03C098B39F7B98BB81FF04C0A6
:1004500098B3906298BB03C098B39F7D98BB80FF10
:1004600004C088B3806188BB03C088B38F7E88BB1B
:1004700088B3826088BB8FE99FE00197F1F700C0E5
:10048000000088B38D7F88BBEFE9FFE03197F1F77B
:1004900000C0000008951F93CF93DF93CDB7DEB760
:1004A0002A970FB6F894DEBF0FBECDBF6115710558
:1004B00081059105D1F480E30E94DB012CC02AE084
:1004C00030E040E050E00E948703E1E0F0E0EC0F14
:1004D000FD1FE10FF11D17FDFA95605D6083622F2E
:1004E000732F842F952F1F5F01C010E061157105D8
:1004F0008105910521F711500CC0E1E0F0E0EC0F0F
:10050000FD1FE10FF11D17FDFA9580810E94DB01AF
:100510001150112394F72A960FB6F894DEBF0FBE40
:10052000CDBFDF91CF911F91089580916A00909186
:100530006B00A0916C00B0916D000196A11DB11DE2
:1005400080936A0090936B00A0936C00B0936D0051
:100550008D379105A105B10569F410926A001092DA
:100560006B0010926C0010926D00809170008F5F94
:100570008093700008950E9420010E9495018DE7EC
:100580000E94250385E992E090937800809377009C
:10059000C1E063E7809170000E9449006DE68091A0
:1005A0006F000E94490068E680916E000E94490039
:1005B00080917000C81769F381E00E94250185E8E9
:1005C0000E94250160916E0070E080E090E00E9442
:1005D0004B028AE30E94DB0160916F0070E080E0D3
:1005E00090E00E944B028AE30E94DB016091700060
:1005F00070E080E090E00E944B02C0917000CC332C
:1006000039F41092700080916F008F5F80936F00BB
:1006100080916F008C3339F410926F0080916E00DE
:100620008F5F80936E0080916E008C3309F0B1CFA4
:1006300010926E00AECF1F920F920FB60F92112440
:100640000F900FBE0F901F9018958CBF83B78160DD
:1006500083BF83B7846083BF83B7806883BF83B75A
:10066000886083BF89B7826089BF8FB780688FBF7A
:1006700008951F920F920FB60F9211242F933F935C
:100680004F935F936F937F938F939F93AF93BF939A
:10069000EF93FF93E0917500F09176000995FF913B
:1006A000EF91BF91AF919F918F917F916F915F91EA
:1006B0004F913F912F910F900FBE0F901F90189563
:1006C0001F920F920FB60F9211242F933F934F93C7
:1006D0005F936F937F938F939F93AF93BF93EF93AA
:1006E000FF93E0917700F09178000995FF91EF91E9
:1006F000BF91AF919F918F917F916F915F914F913A
:100700003F912F910F900FBE0F901F901895A1E26F
:100710001A2EAA1BBB1BFD010DC0AA1FBB1FEE1F7B
:10072000FF1FA217B307E407F50720F0A21BB30BC6
:10073000E40BF50B661F771F881F991F1A9469F742
:1007400060957095809590959B01AC01BD01CF019E
:060750000895F894FFCFAC
:0A0756003F065B4F666D7D077F6F65
:00000001FF
