S013000041746D61676133325F54582E7372656356
S11300000C942A000C9434000C9434000C943400A6
S11300100C9434000C9434000C9434000C9434008C
S11300200C9434000C9434000C9434000C9434007C
S11300300C9434000C9434000C9434000C9434006C
S11300400C9434000C9434000C9434000C9434005C
S11300500C94340011241FBECFE5D8E0DEBFCDBF21
S11300600E94EC000C943E010C9400009BB3977F1B
S11300709BBB882324F49BB390689BBB03C09BB3B6
S11300809F779BBB86FF04C09BB390649BBB03C05C
S11300909BB39F7B9BBB85FF04C09BB390629BBBC0
S11300A003C09BB39F7D9BBB84FF04C09BB3906143
S11300B09BBB03C09BB39F7E9BBB9BB394609BBBCA
S11300C0EFE9FFE03197F1F700C000009BB39B7F9D
S11300D09BBBEFE9FFE03197F1F700C0000083FF1D
S11300E004C09BB390689BBB03C09BB39F779BBB2F
S11300F082FF04C09BB390649BBB03C09BB39F7BF4
S11301009BBB81FF04C09BB390629BBB03C09BB3AA
S11301109F7D9BBB80FF04C08BB380618BBB03C0FE
S11301208BB38F7E8BBB8BB384608BBB8FE99FE0DB
S11301300197F1F700C000008BB38B7F8BBBEFE915
S1130140FFE03197F1F700C0000008958AB38C6F87
S11301508ABB83E00E9436008FE79EE30197F1F7A4
S113016000C0000083E00E9436008FE79EE3019701
S1130170F1F700C0000083E00E9436008FE79EE3A1
S11301800197F1F700C0000083E00E9436008FE77A
S11301909EE30197F1F700C0000082E00E94360060
S11301A088E20E94360088E00E94360081E00E94C6
S11301B0360086E00E94360083E00E9436008CE020
S11301C00E9436009FEF29EF80E09150204080404C
S11301D0E1F700C00000089581B3806881BB0E94EC
S11301E01E01C0E088B3806188BB82B38F7782BB75
S11301F0D1E0DC0F8C2F0E943A012FEF81EE94E0C6
S1130200215080409040E1F700C0000088B38F7E09
S113021088BB82B3806882BBCE5F8D2F0E943A0177
S11302202FEF81EE94E0215080409040E1F700C030
S11302300000CF3FB9F60E94A600D3CF87B38061F8
S113024087BB87B3806287BB87B38F7B87BB87B34A
S1130250806887BB8DB181608DB98DB182608DB9A5
S11302608EB181608EB98DB180618DB98DB180649C
S11302708DB908958FB9779BFECF0895F894FFCF79
S9030000FC
