S018000041746D65676133325F4C45445F4549422E73726563F5
S11300000C942A000C9472000C943C000C943C0058
S11300100C943C000C943C000C943C000C943C006C
S11300200C943C000C943C000C943C000C943C005C
S11300300C943C000C943C000C943C000C943C004C
S11300400C943C000C943C000C943C000C943C003C
S11300500C943C0011241FBECFE5D8E0DEBFCDBF19
S113006020E0A0E6B0E001C01D92A136B207E1F79E
S11300700E943E000C9488000C9400008FB78068A6
S11300808FBF8BB780648BBF85B78E7F85BF85B7E5
S1130090826085BF81B38B7F81BB82B3846082BB66
S11300A087B3816087BB98B381E0892788BB80913F
S11300B06000813049F42FEF81EE94E021508040BC
S11300C09040E1F700C0000080916000823059F751
S11300D02FEF89E698E1215080409040E1F700C07D
S11300E00000E1CF1F920F920FB60F9211248F934D
S11300F0809160008F5F80936000833019F481E009
S1130100809360008F910F900FBE0F901F901895F1
S1070110F894FFCF8D
S9030000FC
