S017000041746D65676133325F54494D4552312E7372656348
S11300000C942A000C9449000C9470000C94470042
S11300100C9447000C9447000C9420020C94470065
S11300200C9447000C9447000C9447000C94470030
S11300300C9447000C9447000C9447000C94470020
S11300400C9447000C9447000C9447000C94470010
S11300500C94470011241FBECFE5D8E0DEBFCDBF0E
S113006010E0A0E6B0E0EAE0F9E002C005900D92ED
S1130070AE37B107D9F720E0AEE7B0E001C01D927A
S1130080A538B207E1F70E946A020C9483040C9429
S113009000001F920F920FB60F9211242F933F93DB
S11300A04F935F936F937F938F939F93AF93BF937C
S11300B0EF93FF93E0918300F09184000995FF9101
S11300C0EF91BF91AF919F918F917F916F915F91CC
S11300D04F913F912F910F900FBE0F901F90189545
S11300E01F920F920FB60F9211242F933F934F93A9
S11300F05F936F937F938F939F93AF93BF93EF938C
S1130100FF93E0918100F09182000995FF91EF91B6
S1130110BF91AF919F918F917F916F915F914F911B
S11301203F912F910F900FBE0F901F90189598B389
S1130130977F98BB882324F498B3906898BB03C036
S113014098B39F7798BB86FF04C098B3906498BB1C
S113015003C098B39F7B98BB85FF04C098B390629B
S113016098BB03C098B39F7D98BB84FF04C098B329
S1130170906198BB03C098B39F7E98BB98B394607A
S113018098BBEFE9FFE03197F1F700C0000098B3A6
S11301909B7F98BBEFE9FFE03197F1F700C00000C7
S11301A083FF04C098B3906898BB03C098B39F774B
S11301B098BB82FF04C098B3906498BB03C098B303
S11301C09F7B98BB81FF04C098B3906298BB03C027
S11301D098B39F7D98BB80FF04C088B3806188BBBF
S11301E003C088B38F7E88BB88B3846088BB8FE9E3
S11301F09FE00197F1F700C0000088B38B7F88BBB4
S1130200EFE9FFE03197F1F700C00000089587B3EC
S11302108C6F87BB83E00E9497008FE79EE3019772
S1130220F1F700C0000083E00E9497008FE79EE38F
S11302300197F1F700C0000083E00E9497008FE768
S11302409EE30197F1F700C0000083E00E9497004D
S11302508FE79EE30197F1F700C0000082E00E945F
S1130260970088E20E94970088E00E94970081E04E
S11302700E94970086E00E94970083E00E94970006
S11302808CE00E9497009FEF29EF80E0915020407E
S11302908040E1F700C00000089598B3986098BBCF
S11302A0882324F498B3906898BB03C098B39F77CD
S11302B098BB86FF04C098B3906498BB03C098B3FE
S11302C09F7B98BB85FF04C098B3906298BB03C022
S11302D098B39F7D98BB84FF04C098B3906198BB8A
S11302E003C098B39F7E98BB98B3946098BBEFE922
S11302F0FFE03197F1F700C0000098B39B7F98BBF3
S1130300EFE9FFE03197F1F700C0000083FF04C07C
S113031098B3906898BB03C098B39F7798BB82FF4B
S113032004C098B3906498BB03C098B39F7B98BBF8
S113033081FF04C098B3906298BB03C098B39F7DBB
S113034098BB80FF04C088B3806188BB03C088B3B6
S11303508F7E88BB88B3846088BB8FE99FE0019758
S1130360F1F700C0000088B38B7F88BBEFE9FFE0A2
S11303703197F1F700C0000008950F931F93CF93B6
S11303808C01C0E003C00E944D01CF5FF801EC0F67
S1130390F11DC7FDFA9580818111F5CFCF911F9191
S11303A00F9108951F93CF93DF93CDB7DEB72A97AC
S11303B00FB6F894DEBF0FBECDBF10E015C02AE023
S11303C030E040E050E00E946104E1E0F0E0EC0F36
S11303D0FD1FE10FF11D17FDFA95605D6083622F2B
S11303E0732F842F952F1F5F61157105810591056A
S11303F031F711500CC0E1E0F0E0EC0FFD1FE10F0C
S1130400F11D17FDFA9580810E944D0111501123B1
S113041094F72A960FB6F894DEBF0FBECDBFDF91D6
S1130420CF911F9108958EB581608EBD8EB5806485
S11304308EBD89B7806289BF8FB780688FBF0895EA
S11304401F920F920FB60F9211242F933F934F9345
S11304505F936F937F938F939F93AF93BF93EF9328
S1130460FF93E0917E00F0917F000995FF91EF9159
S1130470BF91AF919F918F917F916F915F914F91B8
S11304803F912F910F900FBE0F901F901895E09100
S11304908000F0E086B597B5EE0FFF1FE05AFF4FDE
S11304A09183808380918000823019F489B78F7D95
S11304B089BF809180008F5F80938000809180004D
S11304C0813021F48EB58F7B8EBD08958EB5806406
S11304D08EBD089587E492E090937F0080937E0020
S11304E00E9413020E940701809180008330E1F78B
S11304F080E80E94970086E690E00E94BD01C0E675
S1130500D0E06C817D8188819981681B790B72951B
S113051062956F7067277F70672780E090E00E9484
S1130520D20180E790E00E94BD0180EC0E94970018
S113053083E790E00E94BD016A817B810881198173
S1130540601B710B80E090E00E9466036B017C01EC
S11305506C817D81601B710B80E090E00E946603DA
S11305609B01AC01C701B6010E94C50220E030E046
S113057048EC52E40E94F4030E9437030E94D20123
S11305808BE790E00E94BD01AFCF0E94D9020C948A
S1130590BA030E94B30358F00E94AC0340F029F45C
S11305A05F3F29F00C94A30351110C94EE030C94B7
S11305B0A9030E94CB0368F39923B1F3552391F364
S11305C0951B550BBB27AA2762177307840738F0BE
S11305D09F5F5F4F220F331F441FAA1FA9F335D01B
S11305E00E2E3AF0E0E832D091505040E695001CCF
S11305F0CAF72BD0FE2F29D0660F771F881FBB1F89
S1130600261737074807AB07B0E809F0BB0B802D66
S1130610BF01FF2793585F4F3AF09E3F510578F092
S11306200C94A3030C94EE035F3FE4F3983ED4F3DD
S1130630869577956795B795F7959F5FC9F7880F66
S1130640911D9695879597F90895E1E0660F771FB8
S1130650881FBB1F621773078407BA0720F0621B49
S1130660730B840BBA0BEE1F88F7E09508950E9474
S1130670D30388F09F5798F0B92F9927B751B0F05A
S1130680E1F0660F771F881F991F1AF0BA95C9F712
S113069014C0B13091F00E94ED03B1E008950C94C0
S11306A0ED03672F782F8827B85F39F0B93FCCF373
S11306B0869577956795B395D9F73EF4909580958F
S11306C0709561957F4F8F4F9F4F0895E89409C0AF
S11306D097FB3EF490958095709561957F4F8F4F71
S11306E09F4F9923A9F0F92F96E9BB279395F69587
S11306F0879577956795B795F111F8CFFAF4BB0F05
S113070011F460FF1BC06F5F7F4F8F4F9F4F16C068
S1130710882311F096E911C0772321F09EE8872FF2
S1130720762F05C0662371F096E8862F70E060E0AE
S11307302AF09A95660F771F881FDAF7880F969527
S1130740879597F9089597F99F6780E870E060E0CE
S113075008959FEF80EC089500240A941616170656
S113076018060906089500240A941216130614069E
S113077005060895092E0394000C11F4882352F001
S1130780BB0F40F4BF2B11F460FF04C06F5F7F4FB9
S11307908F4F9F4F089557FD9058440F551F59F0A0
S11307A05F3F71F04795880F97FB991F61F09F3F5A
S11307B079F087950895121613061406551FF2CF83
S11307C04695F1DF08C0161617061806991FF1CFD3
S11307D086957105610508940895E894BB276627FA
S11307E07727CB0197F908950E9407040C94BA0364
S11307F00E94AC0338F00E94B30320F0952311F05B
S11308000C94A3030C94A90311240C94EE030E94EA
S1130810CB0370F3959FC1F3950F50E0551F629F72
S1130820F001729FBB27F00DB11D639FAA27F00D45
S1130830B11DAA1F649F6627B00DA11D661F829F6C
S11308402227B00DA11D621F739FB00DA11D621F51
S1130850839FA00D611D221F749F3327A00D611D6E
S1130860231F849F600D211D822F762F6A2F112450
S11308709F5750409AF0F1F088234AF0EE0FFF1F83
S1130880BB1F661F771F881F91505040A9F79E3FDA
S1130890510580F00C94A3030C94EE035F3FE4F342
S11308A0983ED4F3869577956795B795F795E79530
S11308B09F5FC1F7FE2B880F911D9695879597F939
S11308C00895A1E21A2EAA1BBB1BFD010DC0AA1F8D
S11308D0BB1FEE1FFF1FA217B307E407F50720F0A5
S11308E0A21BB30BE40BF50B661F771F881F991F20
S11308F01A9469F760957095809590959B01AC0169
S10D0900BD01CF010895F894FFCF64
S113090A010002000300506572696F64203D2000F3
S111091A75730044757479203D20002500009B
S9030000FC
