S00E00004D41535445522E737265634A
S11300000C942A000C9447000C9447000C9447006D
S11300100C9447000C9447000C9447000C94470040
S11300200C9447000C9447000C9447000C94470030
S11300300C94C9000C9447000C9447000C9447009E
S11300400C9447000C9447000C9447000C94470010
S11300500C94470011241FBECFE5D8E0DEBFCDBF0E
S113006010E0A0E6B0E0E4EEF1E002C005900D92ED
S1130070AA36B107D9F720E0AAE6B0E001C01D9284
S1130080AE36B207E1F70E947E000C94F0000C94A7
S1130090000094B39FEF94BB9AB393609ABB9BB355
S11300A093609BBBEDEC8E9FE12D1124E695E695C4
S11300B0E6952E2F220F922F990F990F920F891BDD
S11300C0982FF0E0E05AFF4F808185BB8BB38E7F81
S11300D08BBB8AE18A95F1F700C023E02BBBE92FA3
S11300E0F0E0E05AFF4F808185BB8BB38D7F8BBBE3
S11300F08AE18A95F1F700C02BBB08958BB38C611C
S11301008BBB0E94B00080916B000E944900CA9989
S113011009C0CA9BFECF80916B00843618F4865FB9
S113012080936B00CB9909C0CB9BFECF80916B0071
S1130130882319F08A5080936B00CC9904C0CC9B1F
S1130140FECF10926B0090916A0080916B0098171B
S1130150D1F20E94BF0080916B0080936A00D3CFDC
S113016087B3806187BB87B3806287BB87B38F7B8C
S113017087BB87B3806887BB80E58DB9089598B342
S11301809F7E98BB8FB9779BFECF88B3806188BB75
S113019008951F920F920FB60F9211242F933F933D
S11301A04F935F936F937F938F939F93AF93BF937B
S11301B0EF93FF93E0916C00F0916D000995FF912E
S11301C0EF91BF91AF919F918F917F916F915F91CB
S11301D04F913F912F910F900FBE0F901F90189544
S10701E0F894FFCFBD
S10D01E43F065B4F666D7D077F6FD9
S9030000FC
