S01B0000436F6D6D756E69636174696F6E5F536C6176652E7372656359
S11300000C942A000C943C000C943C000C943C008E
S11300100C943C000C943C000C943C000C943C006C
S11300200C943C000C943C000C943C000C943C005C
S11300300C94F7010C9436020C943C000C943C0094
S11300400C943C000C943C000C943C000C943C003C
S11300500C943C0011241FBECFE5D8E0DEBFCDBF19
S113006020E0A0E6B0E001C01D92A636B207E1F799
S11300700E94B6010C947F020C9400009BB3977FFE
S11300809BBB882324F49BB390689BBB03C09BB3A6
S11300909F779BBB86FF04C09BB390649BBB03C04C
S11300A09BB39F7B9BBB85FF04C09BB390629BBBB0
S11300B003C09BB39F7D9BBB84FF04C09BB3906133
S11300C09BBB03C09BB39F7E9BBB9BB394609BBBBA
S11300D0EFE9FFE03197F1F700C000009BB39B7F8D
S11300E09BBBEFE9FFE03197F1F700C0000083FF0D
S11300F004C09BB390689BBB03C09BB39F779BBB1F
S113010082FF04C09BB390649BBB03C09BB39F7BE3
S11301109BBB81FF04C09BB390629BBB03C09BB39A
S11301209F7D9BBB80FF04C08BB380618BBB03C0EE
S11301308BB38F7E8BBB8BB384608BBB8FE99FE0CB
S11301400197F1F700C000008BB38B7F8BBBEFE905
S1130150FFE03197F1F700C0000008958AB38C6F77
S11301608ABB83E00E943E008FE79EE30197F1F78C
S113017000C0000083E00E943E008FE79EE30197E9
S1130180F1F700C0000083E00E943E008FE79EE389
S11301900197F1F700C0000083E00E943E008FE762
S11301A09EE30197F1F700C0000082E00E943E0048
S11301B088E20E943E0088E00E943E0081E00E94A6
S11301C03E0086E00E943E0083E00E943E008CE0F8
S11301D00E943E009FEF29EF80E091502040804034
S11301E0E1F700C0000008959BB398609BBB88238F
S11301F024F49BB390689BBB03C09BB39F779BBBCA
S113020086FF04C09BB390649BBB03C09BB39F7BDE
S11302109BBB85FF04C09BB390629BBB03C09BB395
S11302209F7D9BBB84FF04C09BB390619BBB03C0B9
S11302309BB39F7E9BBB9BB394609BBBEFE9FFE0AA
S11302403197F1F700C000009BB39B7F9BBBEFE9A4
S1130250FFE03197F1F700C0000083FF04C09BB3B7
S113026090689BBB03C09BB39F779BBB82FF04C07A
S11302709BB390649BBB03C09BB39F7B9BBB81FFE1
S113028004C09BB390629BBB03C09BB39F7D9BBB8D
S113029080FF04C08BB380618BBB03C08BB38F7EA4
S11302A08BBB8BB384608BBB8FE99FE00197F1F725
S11302B000C000008BB38B7F8BBBEFE9FFE031976D
S11302C0F1F700C0000008951F93CF93DF93CDB7DB
S11302D0DEB72A970FB6F894DEBF0FBECDBF611507
S11302E0710581059105D1F480E30E94F4002CC0CE
S11302F02AE030E040E050E00E945D02E1E0F0E0FE
S1130300EC0FFD1FE10FF11D17FDFA95605D608391
S1130310622F732F842F952F1F5F01C010E061158A
S113032071058105910521F711500CC0E1E0F0E061
S1130330EC0FFD1FE10FF11D17FDFA9580810E945E
S1130340F4001150112394F72A960FB6F894DEBFE7
S11303500FBECDBFDF91CF911F9108958FB18093D0
S1130360610008958CB18093600008958EEA91E055
S1130370909365008093640082EB91E09093630016
S1130380809362000E94AE000E94E1010E941E025E
S113039080E80E943E006091610070E080E090E09F
S11303A00E94640185E80E943E006091600070E054
S11303B080E090E00E946401809160000E9430021D
S11303C0E7CF87B38F7E87BB87B38F7D87BB87B328
S11303D0806487BB87B38F7787BB8DB180648DB909
S11303E08DB180688DB98FB780688FBF08951F92D3
S11303F00F920FB60F9211242F933F934F935F9355
S11304006F937F938F939F93AF93BF93EF93FF93D8
S1130410E0916400F09165000995FF91EF91BF911F
S1130420AF919F918F917F916F915F914F913F9188
S11304302F910F900FBE0F901F90189587E689B9E2
S113044010BC86E880BD8AB188608AB98AB18061AF
S11304508AB98AB180688AB98FB780688FBF0895D6
S11304605D9BFECF8CB95E9BFECF08951F920F92C9
S11304700FB60F9211242F933F934F935F936F9373
S11304807F938F939F93AF93BF93EF93FF93E091E9
S11304906200F09163000995FF91EF91BF91AF91D4
S11304A09F918F917F916F915F914F913F912F9188
S11304B00F900FBE0F901F901895A1E21A2EAA1B41
S11304C0BB1BFD010DC0AA1FBB1FEE1FFF1FA21700
S11304D0B307E407F50720F0A21BB30BE40BF50BFD
S11304E0661F771F881F991F1A9469F76095709586
S11304F0809590959B01AC01BD01CF010895F894BE
S1050500FFCF27
S9030000FC
