:100000000C942A000C9434000C9434000C943400AA
:100010000C9434000C9434000C9434000C94340090
:100020000C9434000C9434000C9434000C94340080
:100030000C9434000C9434000C9434000C94340070
:100040000C9434000C9434000C9434000C94340060
:100050000C94340011241FBECFE5D8E0DEBFCDBF25
:100060000E9436000C945F000C9400000E944C002B
:1000700080E0C1E0C80F0E945B00CF3F11F08C2FE1
:1000800001C080E02FEF33EC99E0215030409040E8
:10009000E1F700C00000EDCF8BB18D7F8BB987E613
:1000A00089B98AB188608AB98AB180618AB980B514
:1000B000866880BD08958CB95E9BFECF0895F89444
:0200C000FFCF70
:00000001FF
