:100000000C942A000C943C000C943C000C943C0092
:100010000C943C000C943C000C943C000C943C0070
:100020000C943C000C943C000C943C000C943C0060
:100030000C9460000C943C000C943C000C943C002C
:100040000C943C000C943C000C943C000C943C0040
:100050000C943C0011241FBECFE5D8E0DEBFCDBF1D
:1000600020E0A0E6B0E001C01D92A236B207E1F7A1
:100070000E943E000C9487000C9400000E944700F0
:100080008CE00E94560080E18A95F1F7F9CF87B3A2
:10009000806187BB87B3806287BB87B38F7B87BB59
:1000A00087B3806887BB80E58DB9089598B39F7E3C
:1000B00098BB8FB9779BFECF88B3806188BB0895CA
:1000C0001F920F920FB60F9211242F933F934F93CD
:1000D0005F936F937F938F939F93AF93BF93EF93B0
:1000E000FF93E0916000F09161000995FF91EF911D
:1000F000BF91AF919F918F917F916F915F914F9140
:100100003F912F910F900FBE0F901F901895F8946C
:02011000FFCF1F
:00000001FF
