:100000000C942A000C9434000C9434000C943400AA
:100010000C9434000C9434000C9434000C94340090
:100020000C9434000C9434000C9434000C94340080
:100030000C9434000C9434000C9434000C94340070
:100040000C9434000C9434000C9434000C94340060
:100050000C94340011241FBECFE5D8E0DEBFCDBF25
:100060000E9436000C947A000C9400008AB38D7FB5
:100070008ABB8BB382608BBB87B3816087BB88B33D
:100080008E7F88BB80E003C082E001C080E0C99918
:1000900013C0811111C088B3816088BB2FEF81EE3E
:1000A00094E0215080409040E1F700C0000088B308
:1000B0008E7F88BB81E0EBCFC99B02C0813021F3EA
:1000C000C99913C0823089F488B3816088BB2FEF4F
:1000D00089E698E1215080409040E1F700C000009F
:1000E00088B38E7F88BB83E0D2CFC99BD0CF8330CB
:0800F00071F6CCCFF894FFCFAC
:00000001FF
