S01D000041746D65676133325F4C45445F746F6757707573682E737265635F
S11300000C942A000C944C000C9434000C9434008E
S11300100C9434000C9434000C9434000C9434008C
S11300200C9434000C9434000C9434000C9434007C
S11300300C9434000C9434000C9434000C9434006C
S11300400C9434000C9434000C9434000C9434005C
S11300500C94340011241FBECFE5D8E0DEBFCDBF21
S11300600E9436000C945E000C9400008FB78068E8
S11300708FBF8BB780648BBF85B7816085BF85B721
S11300808D7F85BF81B38B7F81BB82B3846082BB4C
S113009087B3816087BBFFCF1F920F920FB60F9279
S11300A011248F939F9398B381E0892788BB9F91F4
S11300B08F910F900FBE0F901F901895F894FFCF5B
S9030000FC
