S014000041746D65676133322D4C43442E737265635C
S11300000C942A000C943F000C943F000C943F0085
S11300100C943F000C943F000C943F000C943F0060
S11300200C943F000C943F000C943F000C943F0050
S11300300C943F000C943F000C943F000C943F0040
S11300400C943F000C943F000C943F000C943F0030
S11300500C943F0011241FBECFE5D8E0DEBFCDBF16
S113006010E0A0E6B0E0EEEFF3E002C005900D92E0
S1130070A836B107D9F70E94DD010C94FD010C9458
S1130080000098B3977F98BB882324F498B39068B2
S113009098BB03C098B39F7798BB86FF04C098B3FE
S11300A0906498BB03C098B39F7B98BB85FF04C042
S11300B098B3906298BB03C098B39F7D98BB84FFAC
S11300C004C098B3906198BB03C098B39F7E98BB5B
S11300D098B3946098BBEFE9FFE03197F1F700C063
S11300E0000098B39B7F98BBEFE9FFE03197F1F7ED
S11300F000C0000083FF04C098B3906898BB03C09D
S113010098B39F7798BB82FF04C098B3906498BB60
S113011003C098B39F7B98BB81FF04C098B39062DF
S113012098BB03C098B39F7D98BB80FF04C088B37D
S1130130806188BB03C088B38F7E88BB88B384602A
S113014088BB8FE99FE00197F1F700C0000088B3F6
S11301508B7F88BBEFE9FFE03197F1F700C0000027
S1130160089587B38C6F87BB83E00E9441008FE7BB
S11301709EE30197F1F700C0000083E00E94410074
S11301808FE79EE30197F1F700C0000083E00E942F
S113019041008FE79EE30197F1F700C0000083E080
S11301A00E9441008FE79EE30197F1F700C0000031
S11301B082E00E94410088E20E94410088E00E949F
S11301C0410081E00E94410086E00E94410083E0FA
S11301D00E9441008CE00E9441009FEF29EF80E0E3
S11301E0915020408040E1F700C00000089598B38A
S11301F0986098BB882324F498B3906898BB03C094
S113020098B39F7798BB86FF04C098B3906498BB5B
S113021003C098B39F7B98BB85FF04C098B39062DA
S113022098BB03C098B39F7D98BB84FF04C098B368
S1130230906198BB03C098B39F7E98BB98B39460B9
S113024098BBEFE9FFE03197F1F700C0000098B3E5
S11302509B7F98BBEFE9FFE03197F1F700C0000006
S113026083FF04C098B3906898BB03C098B39F778A
S113027098BB82FF04C098B3906498BB03C098B342
S11302809F7B98BB81FF04C098B3906298BB03C066
S113029098B39F7D98BB80FF04C088B3806188BBFE
S11302A003C088B38F7E88BB88B3846088BB8FE922
S11302B09FE00197F1F700C0000088B38B7F88BBF3
S11302C0EFE9FFE03197F1F700C0000008950F93C4
S11302D01F93CF938C01C0E003C00E94F700CF5F4F
S11302E0F801EC0FF11DC7FDFA9580818111F5CF5E
S11302F0CF911F910F910895FF920F931F93CF9366
S1130300DF938C01F62EEA018AB38ABB8BB381603A
S11303108BBB8BB382608BBB8BB384608BBB8BB387
S113032088608BBB88810E944100C8010E946701DC
S1130330C8991AC081E00E9441002881422F50E0F0
S11303406F2D70E08FE890E0861B970B48175907D4
S113035049F08FEC90E0861B970B4817590711F072
S11303602F5F2883C89BFECFC9990BC00E94B100A0
S11303708881803821F0803C11F081508883C99BAA
S1130380FECFCA9909C00E94B10088818F3810F04D
S113039080548883CA9BFECFCB9909C00E94B100C8
S11303A08881803910F4805C8883CB9BFECFDF91F9
S11303B0CF911F910F91FF900895CF93DF93CDB705
S11303C0DEB729970FB6F894DEBF0FBECDBF88E025
S11303D0E0E6F0E0DE01119601900D928A95E1F7D6
S11303E080E889870E94B100AE01475F5F4F67E0F4
S11103F0CE0101960E947C01F7CFF894FFCF56
S10B03FE6D6F68616D65640018
S9030000FC
