S017000041746D65676133325F6C6F636B65722E737265637A
S11300000C942A000C9447000C9447000C9447006D
S11300100C9447000C9447000C9447000C94470040
S11300200C9447000C9447000C9447000C94470030
S11300300C9447000C9447000C9447000C94470020
S11300400C9447000C9447000C9447000C94470010
S11300500C94470011241FBECFE5D8E0DEBFCDBF0E
S113006011E0A0E6B0E0ECE8FCE002C005900D92DF
S1130070AE30B107D9F721E0AEE0B1E001C01D9286
S1130080A031B207E1F70E9493050C9444060C9446
S11300900000E199FECF9FBB8EBB8CB381608CBB0B
S11300A08DB30895E199FECF9FBB8EBB6DBB8CB31E
S11300B084608CBB8CB382608CBB089580EF81BB61
S11300C08FE082BB089582B38F7E82BB82B380624D
S11300D082BB82B3806482BB82B3806882BB809B14
S11300E05CC0819B5CC0829B5CC0839B5CC08FE9CD
S11300F09FE00197F1F700C0000082B3806182BBEA
S113010082B38F7D82BB82B3806482BB82B38068FA
S113011082BB809B4AC0819B4AC0829B4AC0839B0E
S11301204AC08FE99FE00197F1F700C0000082B355
S1130130806182BB82B3806282BB82B38F7B82BBCD
S113014082B3806882BB809B38C0819B38C0829B0D
S113015038C0839B38C08FE99FE00197F1F700C056
S1130160000082B3806182BB82B3806282BB82B3AF
S1130170806482BB82B38F7782BB809B26C0819BC5
S113018026C0829B26C0839B26C08FE99FE00197EF
S1130190F1F700C0000080E0089587E3089584E348
S11301A0089581E3089589E0089588E3089585E337
S11301B0089582E3089580E3089589E3089586E32A
S11301C0089583E308958DE308958FE208958AE204
S11301D008958DE208958BE2089598B3977F98BBB4
S11301E0882324F498B3906898BB03C098B39F778E
S11301F098BB86FF04C098B3906498BB03C098B3BF
S11302009F7B98BB85FF04C098B3906298BB03C0E2
S113021098B39F7D98BB84FF04C098B3906198BB4A
S113022003C098B39F7E98BB98B3946098BBEFE9E2
S1130230FFE03197F1F700C0000098B39B7F98BBB3
S1130240EFE9FFE03197F1F700C0000083FF04C03D
S113025098B3906898BB03C098B39F7798BB82FF0C
S113026004C098B3906498BB03C098B39F7B98BBB9
S113027081FF04C098B3906298BB03C098B39F7D7C
S113028098BB80FF04C088B3806188BB03C088B377
S11302908F7E88BB88B3846088BB8FE99FE0019719
S11302A0F1F700C0000088B38B7F88BBEFE9FFE063
S11302B03197F1F700C00000089587B38C6F87BBB6
S11302C083E00E94ED008FE79EE30197F1F700C001
S11302D0000083E00E94ED008FE79EE30197F1F7B1
S11302E000C0000083E00E94ED008FE79EE30197C9
S11302F0F1F700C0000083E00E94ED008FE79EE369
S11303000197F1F700C0000082E00E94ED0088E24E
S11303100E94ED0088E00E94ED0081E00E94ED0063
S113032086E00E94ED0083E00E94ED008CE00E94D4
S1130330ED009FEF29EF80E0915020408040E1F7ED
S113034000C00000089598B3986098BB882324F4F3
S113035098B3906898BB03C098B39F7798BB86FF07
S113036004C098B3906498BB03C098B39F7B98BBB8
S113037085FF04C098B3906298BB03C098B39F7D77
S113038098BB84FF04C098B3906198BB03C098B332
S11303909F7E98BB98B3946098BBEFE9FFE03197D8
S11303A0F1F700C0000098B39B7F98BBEFE9FFE032
S11303B03197F1F700C0000083FF04C098B3906840
S11303C098BB03C098B39F7798BB82FF04C098B3CF
S11303D0906498BB03C098B39F7B98BB81FF04C013
S11303E098B3906298BB03C098B39F7D98BB80FF7D
S11303F004C088B3806188BB03C088B38F7E88BB88
S113040088B3846088BB8FE99FE00197F1F700C04F
S1130410000088B38B7F88BBEFE9FFE03197F1F7E9
S113042000C0000008950F931F93CF938C01C0E088
S113043003C00E94A301CF5FF801EC0FF11DC7FDBB
S1130440FA9580818111F5CFCF911F910F91089575
S11304501F93CF93DF93CDB7DEB72A970FB6F894E7
S1130460DEBF0FBECDBF6115710581059105D1F4C5
S113047080E30E94A3012CC02AE030E040E050E079
S11304800E941306E1E0F0E0EC0FFD1FE10FF11D07
S113049017FDFA95605D6083622F732F842F952F6B
S11304A01F5F01C010E0611571058105910521F7F9
S11304B011500CC0E1E0F0E0EC0FFD1FE10FF11D65
S11304C017FDFA9580810E94A3011150112394F71E
S11304D02A960FB6F894DEBF0FBECDBFDF91CF9141
S11304E01F91089580910F01815080930F01909185
S11304F0600080910F01890F0E94ED0080E00E944E
S1130500A3010895CF93DF93EC018BEC0E94ED00DF
S1130510BE0180E090E00E9428022FEF89E698E176
S1130520215080409040E1F700C000008BEC0E9415
S1130530ED0080EF90E00E941302DF91CF910895C7
S11305409C019BB390629BBB283B8BE0380751F422
S11305509FEF2BE782E9915020408040E1F700C0F3
S113056000000CC02436310549F49FEF21EE84E0ED
S1130570915020408040E1F700C000008BB38F7D94
S11305808BBB0895EF92FF920F931F93CF93DF934A
S113059010920E0188EB9BE00E94A00281E00E9471
S11305A0ED00C0E0D0E09EC080E80E94ED0081E64E
S11305B090E00E9413020E94630080930E018091D8
S11305C00E01882309F48EC08FE99FE00197F1F7AB
S11305D000C0000084E690E00E94A00280910E0119
S11305E0803308F445C080910E018A3308F040C07E
S11305F080910E019E01220F331FCC0FDD1FCC0F03
S1130600DD1FCC0FDD1FC20FD31FC80FD11DE09714
S11306109091600080910F01890F0E94ED008091FC
S11306200E010E94A3019FEF23EC89E0915020402A
S11306308040E1F700C000009091600080910F01BC
S1130640890F0E94ED008AE20E94A3010E946300C8
S113065090910E018917D1F38FE99FE00197F1F78B
S113066000C0000080910F018F5F80930F013AC09A
S113067080910E01893079F40E9472029E01ADECE2
S1130680BCEC0E943506EC01D695C795D695C79566
S1130690D695C79527C080910E018D3321F4CE01E4
S11306A00E9482021FC080910E018F32D9F4809182
S11306B00F018430B9F081E00E94ED0080E80E94CF
S11306C0ED0089E790E00E9413029FEF23ED80E3A1
S11306D0915020408040E1F700C0000010920F01CB
S11306E0C0E0D0E080910E018F3209F05DCF80919F
S11306F00F01843009F058CF80910E018F32B9F583
S11307007E01F694E794F694E7949701ABE7B4E19D
S11307100E9435068C0116950795602F85EF91E0B0
S11307200E94520024E6209FC001219F900D1124B5
S1130730BE01681B790B84EF91E00E945200109275
S11307400F0181E00E94ED0080E80E94ED0081E944
S113075090E00E9413029FEF23ED80E3915020402C
S11307608040E1F700C0000081E00E94ED00DF91CD
S1130770CF911F910F91FF90EF900895CF93C0E018
S113078062C080910E01882309F459C08FE99FE06B
S11307900197F1F700C0000084E690E00E94A002F7
S11307A080910E018033C8F180910E018A33A8F53F
S11307B080910E0190E0C097C80F909160008091E5
S11307C00F01890F0E94ED0080910E010E94A30188
S11307D09FEF23EC89E0915020408040E1F700C076
S11307E000009091600080910F01890F0E94ED003C
S11307F08AE20E94A3010E94630090910E0189176E
S1130800D1F38FE99FE00197F1F700C000008091D8
S11308100F018F5F80930F0112C080910E01893008
S113082031F40E94720280910E01C81B08C08091AD
S11308300E018D3321F48C2F90E00E9482020E94DD
S1130840630080930E0180910E018F3249F08091F4
S11308500F018A3029F080910E018A3209F091CF7C
S1130860C11127C080910F018A3019F560E085EF2E
S113087091E00E94520060E084EF91E00E945200F7
S113088010920F0181E00E94ED0080E80E94ED00CB
S113089085EA90E00E9413029FEF23ED80E39150DC
S11308A020408040E1F700C0000081E00E94ED009C
S11308B005C081E00E94ED0010920F01CF910895D0
S11308C0CF92DF92EF92FF920F931F93CF93DF9318
S11308D06C0184E690E00E94A00281E00E94ED0099
S11308E000E0E12CF12CE3C082E80E94ED0083EBF0
S11308F090E00E9413020E94630080930E01809195
S11309000E01882309F4CCC08FE99FE00197F1F729
S113091000C0000084E690E00E94A00280910E01D5
S1130920803308F44CC080910E018A3308F047C02C
S113093080910E019701220F331FEE0CFF1CEE0C69
S1130940FF1CEE0CFF1CE20EF31EE80EF11C90E3FC
S1130950E91AF10880910E0190E0C097080F909178
S1130960600080910F01890F0E94ED0080910E01BB
S11309700E94A3012FEF83EC99E021508040904026
S1130980E1F700C000009091600080910F01890F91
S11309900E94ED008AE20E94A3010E9463009091EC
S11309A00E018917D1F38FE99FE00197F1F700C099
S11309B0000080910F018F5F80930F011AC0809116
S11309C00E01893079F40E9472029701ADECBCECFF
S11309D00E9435067C01F694E794F694E794F69425
S11309E0E79407C080910E018D3319F4C7010E946A
S11309F0820280910F01843009F054C010920E01DC
S1130A00C0E0D0E010E010C00E94630080930E01AB
S1130A1080910E01803338F080910E018A3318F4EE
S1130A20C6E2D2E011E02196C63292E0D90760F323
S1130A30111133C0EC14FD0441F48BB38F7B8BBBD9
S1130A4081E00E94ED0011E028C081E00E94ED00E9
S1130A5080E80E94ED0089EC90E00E9413022FEFE1
S1130A6083ED90E3215080409040E1F700C0000006
S1130A7080E80E94ED008FED90E00E9413022FEFBA
S1130A8083ED90E3215080409040E1F700C00000E6
S1130A9010920F0111E0E12CF12CDE9905C005C084
S1130AA010E003C010E001C010E0113029F0809183
S1130AB00F018A3009F018CF011127C080910F016E
S1130AC08A3019F560E085EF91E00E94520060E001
S1130AD084EF91E00E94520010920F0181E00E9485
S1130AE0ED0080E80E94ED0085EA90E00E94130288
S1130AF02FEF8DE399E4215080409040E1F700C04E
S1130B00000081E00E94ED0005C081E00E94ED003C
S1130B1010920F01DF91CF911F910F91FF90EF90F1
S1130B20DF90CF9008958AB380648ABB8BB38F77AC
S1130B308BBB8AB380628ABB0E945D010E945E0007
S1130B40CE995AC082E80E94ED0087EF90E00E949F
S1130B5013020E94630080930E0180910E0188238A
S1130B6079F38FE99FE00197F1F700C000008091CD
S1130B700E018F3219F40E94C20231C080910E011D
S1130B808A3259F484E690E00E94A0028BB3806418
S1130B908BBB81E00E94ED0022C080910E018D3359
S1130BA0A9F484EF91E00E944900C82F85EF91E0F9
S1130BB00E9449002C2F30E0A90164E6869F400D75
S1130BC0511D1124CA010E94820209C00E94BE0361
S1130BD080910E01811103C081E080930E010E9477
S1130BE0630090910E018917D1F38FE99FE001977B
S1130BF0F1F700C00000A4CFCE9BA2CF84EF91E018
S1130C000E944900C82F85EF91E00E9449002C2FD3
S1130C1030E0A90164E6869F400D511D1124CA01EC
S1130C200E9460048DCFA1E21A2EAA1BBB1BFD01FA
S1130C300DC0AA1FBB1FEE1FFF1FA217B307E407B7
S1130C40F50720F0A21BB30BE40BF50B661F771F0F
S1130C50881F991F1A9469F76095709580959095EF
S1130C609B01AC01BD01CF010895A29FB001B39FC8
S1130C70C001A39F700D811D1124911DB29F700DA1
S10F0C80811D1124911D0895F894FFCFEC
S1130C8CC0456E746572204E6577202A2A2A2A2064
S1130C9C202020202020202000494E56414C49443D
S1130CAC2050415353574F524420202020202020C1
S1130CBC00202A2A2A2A204953204348414E4745DA
S1130CCC442020200052455345542053554343455A
S1130CDC5353004C4F434B455220434C4F534544C4
S1130CEC20202020202020200057524F4E472050F7
S1130CFC415353574F5244202020202020200020C1
S1130D0C2054525920414741494E20202020202074
S1130D1C202020202020004C4F434B4552204F5084
S1110D2C454E45442020202020202020000099
S9030000FC
