S01B000041746D65676133325F544F47474C455F4C45442E7372656300
S11300000C942A000C9434000C9434000C943400A6
S11300100C9434000C9434000C9434000C9434008C
S11300200C9434000C9434000C9434000C9434007C
S11300300C9434000C9434000C9434000C9434006C
S11300400C9434000C9434000C9434000C9434005C
S11300500C94340011241FBECFE5D8E0DEBFCDBF21
S11300600E9436000C9458000C9400008AB38D7FD3
S11300708ABB8BB382608BBB87B3816087BB88B339
S11300808E7F88BB82E0C99908C0823031F488B37E
S1130090816088BBC99BFECF81E0C999F4CF8130D0
S11300A091F788B38E7F88BBC99BFECF82E0EBCFEC
S10700B0F894FFCFEE
S9030000FC
