:100000000C942A000C943C000C943C000C943C0092
:100010000C943C000C943C000C943C000C943C0070
:100020000C943C000C943C000C94AC000C948500A7
:100030000C943C000C943C000C943C000C943C0050
:100040000C943C000C943C000C943C000C943C0040
:100050000C943C0011241FBECFE5D8E0DEBFCDBF1D
:1000600020E0A0E6B0E001C01D92A836B207E1F79B
:100070000E9466000C94D3000C94000080916000F4
:1000800090916100A0916200B09163000196A11D62
:10009000B11D8093600090936100A0936200B093C3
:1000A00063008A309105A105B10511F4C39A089542
:1000B0000F97A105B10549F4C39810926000109202
:1000C000610010926200109263000895BB9A8EE363
:1000D00090E090936700809366008CE90E94710025
:1000E000FFCF8CBF83B7816083BF83B7846083BF3A
:1000F00083B7806883BF83B7886083BF89B7826016
:1001000089BF8FB780688FBF08951F920F920FB677
:100110000F9211242F933F934F935F936F937F938D
:100120008F939F93AF93BF93EF93FF93E0916400FE
:10013000F09165000995FF91EF91BF91AF919F916B
:100140008F917F916F915F914F913F912F910F9080
:100150000FBE0F901F9018951F920F920FB60F921F
:1001600011242F933F934F935F936F937F938F93BC
:100170009F93AF93BF93EF93FF93E0916600F0914D
:1001800067000995FF91EF91BF91AF919F918F917A
:100190007F916F915F914F913F912F910F900FBE83
:0A01A0000F901F901895F894FFCF00
:00000001FF
